:10000000984400204DC9000001CA011001CA011026
:1000100001CA011001CA011001CA011001CA011070
:1000200001CA011001CA011001CA011001CA011060
:0C00300001CA011001CA01103FCA0110F2
:10003C00FF7F00400068010701D50420704700F0E5
:10004C0003007047EFF3108072B67047EFF3108027
:10005C0062B670470138FDD1704770470000000050
:10006C0038B5FFF7EFFF06490C684D68401E80411C
:10007C00C00F18BFFFF7EAFF280C40EA044032BD5E
:10008C000820094000F10103810704D010F8011B7E
:10009C0089B18107FAD10268B2F10131914311F0B3
:1000AC00803F04BF50F8042FF6E710F8011B11B184
:1000BC0010F8011BFBE7C01A704700000748084AFC
:1000CC00816812780068C90352B2A0F54070C91358
:1000DC005043A1EB2010803000127047285009408B
:0C00EC000C1300500120704710000000B1
:100100003C0000000000000000000000340100007E
:1001100000000000000000000100000000000000DE
:1001200000000000000000000000000001000000CE
:0C013000000000000800000000000000BB
:10013C003400000000000000000000006801000016
:10014C0000000000000000000100000000000000A2
:10015C00010000000000000000000000080000008A
:04016C00000000008F
:1001700030000000000000000000000098010000B6
:10018000040000000000000001000000FFFFFFFF6E
:10019000FF00000001000000080000000000000057
:1001A0002C0000000000000000000000C40100005E
:1001B000040000000000000001000000FFFFFFFF3E
:0C01C000FFFFFFFF08000000000000002F
:1001CC0034050000E401000099A1011095A701106D
:1001DC00A5C2011009B2011045B8011000000000C1
:0801EC00000000002E000000DD
:1001F40028000000000000000000000014020000BD
:100204000000000000000000FFFFFFFF00000000EE
:080214000800000000000000DA
:10021C00300500003002000069C201106DC10110F0
:10022C001FC2011095BA0110000000000000000070
:04023C00300000008E
:10024000300500005402000075C20110A9B601106B
:100250009DBF011049B60110000000000000000021
:040260003100000069
:1002640024000000000000000000000080020000E4
:100274000000000000000000000000000800000072
:040284000000000076
:10028800240000000000000000000000A40200009C
:10029800000000000000000000000000080000004E
:0402A8000000000052
:1002AC00240000000000000000000000C802000054
:1002BC000000000001000000000000000800000029
:0402CC00000000002E
:1002D00000000000E4150020040000000000000001
:1002E000000000002000000070010000300000004D
:1002F0001C020000EC1500200400000000000000BB
:10030000000000000C000000300400001800000095
:1003100040020000F415002004000000000000006E
:100320000000000024000000480400001800000045
:1003300000000000FC150020040000000000000088
:100340000000000010000000A00100002C000000D0
:10035000CC01000004160020040000000000000092
:1003600000000000200000006402000024000000E3
:10037000FFFFFFFF0C16002004000000000000003B
:100380000000000028000000880200002400000097
:10039000FFFFFFFF14160020040000000000000013
:1003A00000000000580000003C0100003400000084
:1003B000FFFFFFFF1C1600200400000000000000EB
:1003C00000000000100000006004000018000000A1
:1003D000FFFFFFFF241600200400000000000000C3
:1003E000000000001C000000AC020000240000001F
:1003F000FFFFFFFF2C16002004000000000000009B
:100400000000000038000000F40100002800000097
:10041000FFFFFFFF34160020040000000000000072
:100420000000000054000000000100003C0000003B
:100430001800000000000000000000004004000060
:080440000800000000000000AC
:100448001800000000000000000000005804000030
:08045800080000000000000094
:100460001800000000000000000000007004000000
:0804700008000000000000007C
:080478000200000088C9000029
:020480007047C3
:040484000100000073
:0404880000000C0064
:04048C0000000D005F
:040490003200000036
:040494000200000062
:040498004C140020E0
:04049C00000200005A
:0404A0000000000058
:0404A40001CA011078
:0404A8000000000050
:0404AC00000000004C
:0404B0000800000040
:0404B4000000200024
:0404B800E01300202D
:0404BC00010000003B
:0404C000941500206F
:0404C400080000002C
:0404C8000000000030
:0404CC00000000002C
:0404D0000000000028
:0404D4000000000024
:0404D8000000000020
:0404DC00010000001B
:0404E0007C14002068
:0404E400060000000E
:0404E800010000000F
:0404EC00C412002016
:0404F0000000000008
:0404F4000000000004
:0404F80000020000FE
:0404FC0000000000FC
:020502002A00CD
:020504000100F4
:020506002500CE
:020508003000C1
:02050A003100BE
:02050C002E00BF
:02050E000100EA
:0105100001E9
:080514000400000078C900009A
:08051C000000000000000000D7
:0405240000000100D2
:0405280000000300CC
:04052C0087C401106F
:04053000380500008A
:040534003805000086
:0405380000000000BF
:04053C00800000003B
:040540008000000037
:0405440000000000B3
:0405480094150020E6
:04054C00B74C0000A8
:040550002000000087
:0405540064C9000076
:04055800CCC600000D
:04055C000DC30110BA
:040560007F360000E2
:0405640081360000DC
:0405680099C801101D
:04056C009BC8011017
:040570000000000087
:04057400680000001B
:04057800A4FB0100DF
:04057C00BCFB0100C3
:040580008CFB0100EF
:0205840008006D
:0205860009006A
:02058800010070
:02058A0000006F
:01058C00016D
:040590000000000067
:040594000000000063
:04059800000000005F
:04059C00000000005B
:0405A0005D310000C9
:0405A400BD31000065
:0405A8003D300000E2
:0405AC00E731000033
:0405B000A530000072
:0405B4005B300000B8
:0405B800E53000002A
:0405BC0029320000E0
:0405C000354C0000B6
:0405C400414F0000A3
:0405C800454F00009B
:0405CC000800000023
:0405D0002400000003
:0405D400180000000B
:0405D80028000000F7
:0405DC0020000000FB
:0405E0003C000000DB
:0405E4000C00000007
:0405E80034000000DB
:1005EC0000B583B00820ADF800001220DFF89C1D88
:1005FC000968ADF802006846884701980EBD70B5D1
:10060C00FFF7EEFF6421B0FBF1F4FFF7E9FF642183
:10061C00B0FBF1F10FF2CC00DFF8085D03F017F836
:10062C00287F022802D000F0FAFC01E000F07CFEEA
:10063C00DFF85C6DDFF85C0DB17D00EBC1000C21C7
:10064C004079484330440462F16D727D12B1828B63
:10065C004A43521A42626C65A86DEA8E02FB010095
:10066C00401AA865F07A28B3FFF7BAFF00F063F9D7
:10067C00F067A96FDFF8200D03F044F9287F0228FA
:10068C0009D0E96FDFF8140D03F03CF9287F02283C
:10069C0001D0A87FF8B14FF47A71DFF86C0D03F03C
:1006AC00A9F9E96F401800F5FA61DFF8A40D03F021
:1006BC0029F90EE068730320687095F8200010B9D2
:1006CC00012085F8200095F8200040F0080085F8FE
:1006DC002000A87F20B900206873F07C401CF074C7
:1006EC0070BD00004F6E526164696F5478446F6E38
:1006FC00652025640D0A000010B5DFF8284CE06D6C
:10070C0040084000E065A07F08B100F08BFEDFF8E8
:10071C00800C807E002802BF207F022800F004FE9F
:10072C0094F8200040F00A0084F820000121BDE874
:10073C001040DFF8200D03F0E5B800002DE9F0477C
:10074C000646DFF84C5C3078686688467178DFF8CE
:10075C00D47B00EB01206866B17800EB0140686641
:10076C00F17800EB016068664FF47A713079484398
:10077C00A866642071794143A962B1794143E96269
:10078C00F17941432963317A41436963717A414379
:10079C00A963B17A4843E863F07A400606D50FF2B4
:1007AC00301002F054FF0120287321E00020287340
:1007BC000024DFF8A89D0FF2241AF07A0121A14041
:1007CC0008421CBF97F91F00A0420ED0FC77504680
:1007DC0097F91F10697402F03AFF99F8000001288C
:1007EC0004BF4FF47A7103F079FB641C062CE4DB34
:1007FC00307B010018BFB88497F91F10DFF8600D2B
:10080C0001710529EB6B05EB810227D8DFE801F0BC
:10081C0003080D12181F00F089F8DFF86C1D14E0A6
:10082C0000F084F8DFF8641D0FE000F07FF8DFF8CB
:10083C00601D0AE0EB66916A2967DFF8581D04E039
:10084C00EB66916A2967DFF8501D016006E0916A3A
:10085C00E966DFF8481D016000202867FFF7C0FE3D
:10086C0000F069F8286608F10801686EEA6EDFF896
:10087C00304D0818686601460FF2780002F0E7FE6A
:10088C000020E876FFF7ACFE00F055F8A86720468C
:10089C0003F054F8E87AC8B1686EE96E0A1AB0FB36
:1008AC00F1F001FB0020296F0E183146204603F0B1
:1008BC0029F8FFF795FE00F03EF8296F30186867AD
:1008CC00BDE8F0470FF2540002F0C1BEBDE8F0875E
:1008DC00616472206F6E0D0A000000004368616E47
:1008EC006E656C734461746172617465203D202582
:1008FC00640D0A0073797374656D5F74696D65209E
:10090C003A2025642C2072345F696E7465727661AE
:10091C006C203A2025640D0A000000006F66667397
:10092C006574203A2025640D0A000000916AE9667E
:10093C000021296770476421B0FBF1F0704700007B
:10094C002DE9F84F8EB0054600200590824683466F
:10095C00DFF8D079DFF88C8DDFF88C4D87F810A09C
:10096C0007F1840006900790A8F80E2007F1940078
:10097C0002900A908946012001908DF80DA08DF807
:10098C0002A09DF8380088F81000DFF8040A807E79
:10099C0088F81100A8F802A088F805A0C8F808A0EB
:1009AC00A8F80CA088F812A0C8F814A088F800A029
:1009BC00FFF716FE642197F91F20B0FBF1F10FF23F
:1009CC00685002F044FE626A5FFA89F10120904798
:1009DC000990387F02281CBFE06A8047DFF8BC0909
:1009EC0002F0ACFF28788DF8100049460FF2485001
:1009FC0002F02DFE0126002406E0295DDFF8EC0C48
:100A0C0002F025FE641CE4B24C45F6DB0EA002F0AD
:100A1C001EFEA9F10D00ADF80000BDF80040DFF896
:100A2C00509D28190C909DF81000400901288DF854
:100A3C000F000BD0032818BF052800F0AD80072845
:100A4C0000F0278256E200BF0D0A0000787F0028D4
:100A5C0040F05482BDF80000BA6B411E09F101034D
:100A6C0089B2681C03F06EFC9DF8100089F8000038
:100A7C0005ABBDF80000BA6B011F89B2484603F004
:100A8C0037FC09EB040010F8041D427841EA0221FE
:100A9C008278C07841EA024141EA006005998842B7
:100AAC0077D10298069B7A8E009009F10101B86B00
:100ABC0003F070FC99F8040099F80510DFF8D028C1
:100ACC0040EA012099F8061040EA0140F86399F8D1
:100ADC00081099F8070040EA012099F8091040EA3B
:100AEC00014099F80A1040EA0160386499F80B004B
:100AFC00C0F3021100F00F00D173107109990C981A
:100B0C00FFF71CFE99F80C0010F00F0008BF012035
:100B1C004FF47A71414301F57A70F866B9660FF2B9
:100B2C00244002F094FD601E112827DB50208DF824
:100B3C0004004FF0030AF86D40F02000F865002522
:100B4C0009EB0500417B827BC07B41EA022141EA33
:100B5C000040642148430090ED1CDDE900010A4689
:100B6C000146504601F03AFB0AF1010ABAF1080FAE
:100B7C00EDB2E5DBF86D20F02000F86587F801B0E8
:100B8C007E77DFF8D819DFF808080E70407CF8770C
:100B9C00B4E105207870B1E100200CE0295CFA2961
:100BAC0002BF29184978AF2903D10199491CC9B250
:100BBC000191401CC0B2A042F0DB012401E0641C96
:100BCC00E4B20198A042C0F2BC80012C07BF002007
:100BDC008DF80C008DF80C60761CF6B2711CC9B245
:100BEC00A85D6A5C491CC9B240EA02206A5C491CD7
:100BFC00C9B240EA02404E1C6A5C396C40EA0260A1
:100C0C00884204901AD0D7F844B001E0DBF828B041
:100C1C00BBF1000F1ED0DBF800108842F6D101208A
:100C2C008DF80D000BF1040007900BF114000A90E5
:100C3C000120DBF824A08DF802000BE001208DF8D8
:100C4C00020000208DF80D000698D7F84CA00790F4
:100C5C0002980A900198022812DB844210DABDF83F
:100C6C000010F0B288420BD23046461CC0B2285C51
:100C7C00FA28F4D13046461CC0B2285CAF28EED11D
:100C8C009DF8020000289AD00198012808BFBDF8F1
:100C9C0000400CD0844205D1BDF800009DF80C102A
:100CAC00441A04E09DF80C10B01E441A4E1D9DF819
:100CBC000C002018401EF6B2C0B20690E4B29DF8AB
:100CCC000C0006990090024623460FF28C2002F08D
:100CDC00BEFCA85D8DF82000761CF6B200F00F006B
:100CEC008DF80E00211F9DF80C009DF80E20101899
:100CFC0000F1080406982844E4B210F8032D437858
:100D0C00807842EA032242EA0040069AAA5C40EA52
:100D1C000260721C0B90D2B2A85DAA5C40EA022061
:100D2C00A0EB0A0292B20098B2F5004F28440ADAFE
:100D3C00924400F039F90B98059988420DD008209F
:100D4C002DE007202BE012B2524402F5803A00F05D
:100D5C002BF90B9805998842F1D1002088F80100F5
:100D6C00C8F814A09DF80D0088F802009DF820002A
:100D7C00C0F3001088F805000020C8F8080088F8B7
:100D8C000C00787338659DF80D0080B1022088F84E
:100D9C000000DBF82400504506D128B1062088F865
:100DAC000100FFF7A9FCBBE0CBF824A00CE09DF8F8
:100DBC000F00DFF8DC1505280CBF0120002088F897
:100DCC0000004873C7F84CA09DF82010DFF880068F
:100DDC00C1F340110029397418BF88F8121007D1DB
:100DEC00DFF8AC15DFF8A825C97D127E914201D23F
:100DFC0002F0A4FD9DF80E0050B19DF80C009DF87A
:100E0C00383000F108012246C9B2284600F0B2FC85
:100E1C000698C01E001B012830DB2A5D069888F856
:100E2C000320641CE4B2C01E001BC6B22819002AA1
:100E3C003146CDF80890CDF804A00DD101220092D6
:100E4C00049B079A03F049FA9DF83830324600218A
:100E5C00484600F08FFC11E0012200920024049B14
:100E6C000A9A03F03AFA0120C8F8089088F80C6046
:100E7C0088F80D0000E0641CB442FCDB97F82000FD
:100E8C00099940F0020087F820000C98FFF756FCF7
:100E9C0034E0687801280BD00A21284602F0D6FDF0
:100EAC00A97A884204D00FF2E00002F0D0FB25E0D2
:100EBC00099905F10B00FFF741FC0FF2DC0002F081
:100ECC00C6FBBDF80020691C484602F0A0FD0320BB
:100EDC0088F8000088F801A0C8F80890BDF8000058
:100EEC00401E88F80C0097F8200040F0020087F8AC
:100EFC00200003E088F80160FFF7FEFBDFF89004A8
:100F0C00807E002802BF387F022800F00DFA97F887
:100F1C00200040F0080087F82000012100F0CDF9F6
:100F2C000FB0BDE8F08F00005278446F6E6520253D
:100F3C00642C2025640D0A00527820256420422060
:100F4C003A0000005265636569766544656C6179A9
:100F5C00312025640D0A00006672616D655F656E57
:100F6C00642025642C206672616D655F73746172F8
:100F7C0074202564202C20206672616D655F736976
:100F8C007A652025640D0A00637263206572726FA6
:100F9C0072210D0A0000000072656369766520629B
:100FAC006561636F6E0D0A0005AA02920122009220
:100FBC00CDF804A0049B079A89B203F0F5B810B5DC
:100FCC0000F029F802D000F02AF801E000F0ACF9AA
:100FDC000220607300F001F810BD607094F82000DE
:100FEC0040F0080084F82000704710B500F013F8AA
:100FFC0002D000F014F801E000F096F9DFF890034D
:10100C00807E012806D1A07F08B1042060730420E3
:10101C00FFF7E3FF10BDC34C207F02287047DFF8B9
:10102C00C806C06A004738B5FFF7F5FF02D0FFF7D6
:10103C00F6FF01E000F078F9D54DA86FF8B1FFF795
:10104C00CFFAFFF778FCA96F401AA96E49008142CC
:10105C0015D2E87E98B90120E876FFF7C1FA642131
:10106C00B0FBF1F2A96F0FF22C0002F0F0FA44F68B
:10107C00206141F2883002F0BDFC00F018F9A87E26
:10108C00012806D1A07F08B1032060730320FFF76D
:10109C00A4FF31BD6C6173745F626561636F6E5FD9
:1010AC0074696D65202564202C63757272656E748D
:1010BC005F74696D652025640D0A000070B5994C4C
:1010CC0094F820000021C0F3C002002A55D005225C
:1010DC001042AF4D0FD0627B022A1CBF6278022AED
:1010EC0009D1E16D49084900E165297E617400214F
:1010FC00217461610121A27F114324D1C0F38001CD
:10110C0031B1217821B9617801B9A164A97CE97464
:10111C000521084217D0E97CAA7C914202D2C0F387
:10112C00400171B10020E874206D401C2065A87A44
:10113C0010B9A06C401CA064E06D40084000E06554
:10114C0001E000F0AEF894F82000C0F3400191B13A
:10115C00297E227C12B9EA7D8A420CD200226A7660
:10116C00A277AA7A12B9A26C521CA2646174E16DC6
:10117C0049084900E165697E00294AD0E26DD10633
:10118C0047D400216976EE7D297EB14218D206291A
:10119C0016DA491C2976C9B201EBD1725208A1EBBF
:1011AC004201012909D1297B39B194F91F104A1E3A
:1011BC00012AACBF491E0021E17700F072F828E04B
:1011CC00A08C617440F0FF00A08450084000E065E2
:1011DC000020A0772074A87A10B9A06C401CA064E1
:1011EC00D5F88000401C0228C5F8800009D30020E7
:1011FC00C5F88000A083D9490870DFF8A40302F079
:10120C009DFB4CF2503142F2107002F0F3FB00F0F7
:10121C004EF8E06D810744BF20F00200E065E06D00
:10122C0040BB94F82000C0070CD5206E0168080064
:10123C001CBF04F10C00884794F8200000F0FE005D
:10124C0084F8200094F82000C0F3800058B1206E80
:10125C00816808001CBF2046884794F8200000F0E5
:10126C00FB0084F8200094F8200000F0F70084F8CC
:10127C00200003E040F6B83100F01FF894F820008D
:10128C00C0F3400060B1206E416808001CBFDFF85D
:10129C005404884794F8200000F0FD0084F82000E6
:1012AC0070BD00F0F70084F8200000F0F6BB00F5EC
:1012BC0068519831012002F011BE664802F022BB41
:1012CC001848C16D21F01001C165E6E3F8B5304E48
:1012DC00144F0025B5760524387F022803D1DFF89A
:1012EC000804006B8047F87F96F90F10411A49B239
:1012FC00080048BF002106D40329A8BF0F240629E3
:10130C0004BF012514240020009023462148B47DFD
:10131C0050F83400DFF8DC4C2A46201800F042F973
:10132C00F1BD00001809002005230022012070B532
:10133C00174CDFF87C6D2179A0760329A8BF0F2309
:10134C0006292068DFF8AC5C367F04BF0122142329
:10135C002818022E82B013D00026009649B200F055
:10136C0021F9FFF73DF92379216802B06A18BDE82D
:10137C0070406421B0FBF1F10FF2240002F067B968
:10138C000124009449B200F00DF973BDC41500207E
:10139C0004110020A0130020D4070020F80700201F
:1013AC0052322025642C206672712025642C206416
:1013BC00722025640D0A000038B5694C207905238C
:1013CC0000220328A8BF0A23052808BF0F2303D037
:1013DC00062804BF012214230021009141B2206889
:1013EC00DFF8105C281800F0DDF8FFF7F9F8237926
:1013FC00216801B06A18BDE830406421B0FBF1F1FE
:10140C000FF2080002F023B918FCFFFF523420251C
:10141C00642C206672712025642C20647220256453
:10142C000D0A0000DFF8880C817F39B1DFF8882CB9
:10143C0001215176C16D21F00401C165017F0229A2
:10144C0005D190F8201041F0080180F82010704769
:10145C001C0800208C0700202DE9FC478046FFF774
:10146C00BFF86421B0FBF1F708220021684602F0B6
:10147C00E6FA002500264FF0FF3900200122DFF8A4
:10148C00301CC0B201EB40039B8C33B9401C521E84
:10149C00F7D1888C40F0FF008884486D8A6D3B1A28
:1014AC009A424CD2DFF8104C8D65607D78B1206A81
:1014BC00626A3B1A9A4238BF65620AD3002A1EBF81
:1014CC00D21B801810F1010F03D0814601E0A94610
:1014DC0060620022888C0123934018421FBFDFF802
:1014EC00E40C00EBC2000368002B17D090F9043019
:1014FC0091F91F7043F3030A5745A4BF43F3031339
:10150C00BB420BDB40790C2358432018406A00285F
:10151C0011BF761CEDB20DF805206D1C521C102A63
:10152C00D8DBE8B278B1EDB2691E002002F062FAA5
:10153C001DF80000A0750020C8F8000007E0D11BC2
:10154C0000EB010901E0F6B21EB1C8F800900120D1
:10155C0001E0C8F80000BDE8F68700007F07002016
:10156C00DC15002038B5DFF8504B5F4D20720120A0
:10157C00A96888472A6C207ABDE83840002814BF37
:10158C003421122139201047A028B61C601BB31C33
:10159C00A0F3A91C60E6A61C20D9A31CE0CBA01CC0
:1015AC00D00800202DE9F04704460F463E460FF6C2
:1015BC00E4004D4D8AB010F806A068689046994634
:1015CC00804700284DD1E968204688474548077177
:1015DC00072ED5F818C0129C16D10027099408972D
:1015EC00079706970120059004970397029705200B
:1015FC0001900023DFF8D00B00904CF250314FF4E7
:10160C007A7000FB0AF211E0012709940897002078
:10161C0007900690059704900390CDF80890082049
:10162C000190012300200090524641461846E047A5
:10163C00DFF8840A407A2A6D002814BF0FF6B81020
:10164C000FF6BC10815D38469047696B002C06BFC5
:10165C00DFF85C0AD0F8800000200AB0BDE8F04743
:10166C0008470AB0BDE8F087DFF8603B5B7A002BD7
:10167C0014BF0FF684130FF688131018595C80B240
:10168C00814203DBFF2801DC0120704700207047FA
:10169C008842A8BF824201DB0120704700207047BE
:1016AC0030B5DFF80C4A94F91F500023B8B128006C
:1016BC0008BF236513D0206D402828BF0123602864
:1016CC000DD3203810F03F0F09D1012D07DB6D1E13
:1016DC0068B220B919B1A08C40F0FF00A08415703D
:1016EC00184630BD403F002008C60000B82400005A
:1016FC002DE9F041DFF8C049DFF8085CA67B012337
:10170C00AF19A0F10208B8F1060F06F1010E2DD8A1
:10171C00DFE808F0261B261B041B26000D2E11DA11
:10172C0006205FFA8EF3387184F80EE0E818017128
:10173C00581CA073C0B22918401C0A71A073012058
:10174C00002328701846BDE8F0810E2EFADA5FFAF5
:10175C008EF2387184F80EE0A8180171501CEDE778
:10176C000F2EEFDA387184F80EE0E8E70220EAE792
:10177C00C43800202DE9FC4F85B004460D46DFF837
:10178C0038B9DFF82C6907E000217170C0B2615DD7
:10179C003172451C215C7172E8B29DF814108842BC
:1017AC0080F041812A46551CD2B26421A25C921E63
:1017BC00681C062AEDB2F3D8DFE812F00700080027
:1017CC009A00A700D700E3002301DDE702A900225D
:1017DC0000239446A1E80C1006F12401B1E808504E
:1017EC0002AA0727A2E80850615705469BF80C008F
:1017FC0001F00F08C1F3031970B996F91F004845A1
:10180C0004BF9BF91000404506D0002200210320A4
:10181C00FFF76EFFED1CBFE7EDB26A1CD2B2605D44
:10182C00A15C40EA0121501CC0B2451C235C13F0A2
:10183C000F0AC3F3021208BF4FF0010A51EA02006B
:10184C0002D01AB1901F01D006271DE00023012001
:10185C00062A00FA03FC08D1DFF8680950F83300B7
:10186C0068B14CEA010189B209E011EA0C0F06D00B
:10187C00DFF8500950F8330008B907F0FE075B1C7D
:10188C00082BE4DBADF8081000F0F3FD00F0E6F8EF
:10189C0008B907F0FB0707F0070007281DD14246DF
:1018AC0049460FF2881001F0D2FE86F81F908BF893
:1018BC001080BDF80800B084BDF80A00F084BDF8B3
:1018CC000C003085BDF80E007085BDF81000B08599
:1018DC00BDF81200F0858BF812A0002239460320C7
:1018EC00FFF706FF4FF47A71012002F0F7FA53E785
:1018FC00635D8BF81430054601209840F086002279
:10190C0000210420FFF7F4FE46E7635D1A09C0B21C
:10191C0002F00708225C401CC0B203F00F09235CE4
:10192C00401CC0B242EA0322235C42EA0342451C3B
:10193C0001FB02FADFF8441B096A50468847072767
:10194C0000B9062700F095FD00F088F808B907F0FB
:10195C00FB07072F05D18BF80490CBF800A08BF870
:10196C000F80002239460520CCE7716EFF2019B19B
:10197C0009680A0018BF88479DF818200146062000
:10198C00C0E7C0B26357225C0092401CC0B2032770
:10199C00255C401C42EA0522C0B20092255C42EA5A
:1019AC0005420092401C51430091C0B2451C215687
:1019BC00F06D8DF8041040F02000F065009830B9FF
:1019CC00032B15DBD8B200F06EFC90B110E0DDE912
:1019DC0000010A460146D8B200F000FC48B10428C8
:1019EC0002D0052802D003E0022702E0012700E024
:1019FC000027F06D20F02000F0650022394607200A
:101A0C0080E7615D01F00F010546080008BF012168
:101A1C004FF47A704843B066002200F57A70F06695
:101A2C00002108206EE707B0BDE8F08F5352565FD7
:101A3C004D41435F4C494E4B5F4144525F524551BF
:101A4C002C2064617461726174652025642C20748F
:101A5C0078506F7765722025640D0A0008B907F07D
:101A6C00FD0705220021404612E61CB5DFF85C4755
:101A7C00247B0093E40113460A468DF8044001A927
:101A8C0000F03CF8010007D1DFF8F40900210182D5
:101A9C00816C816100F001F816BD38B50020009012
:101AAC00DFF81446207DFF2801D10A2032BDDFF873
:101ABC00005638B9A86505E0607CE877A88C40F042
:101ACC00FF00A8846846FFF7C7FC0028F4D00098F4
:101ADC0048B9A17DDFF8EC0600EBC102D2E90001A8
:101AEC0000F042F932BDE86D009940F01000E86555
:101AFC00DFF8900901F006FF002032BD2DE9F04F10
:101B0C0085B00C460E9FDFF8A85504930021039175
:101B1C005FFA87F89146A986A97703B90027DFF801
:101B2C0068690178DFF8DCA731700078400907D0CC
:101B3C00022848D0042844D0072800F001810BE18A
:101B4C00286F401EA8670822686F401EE8670120B6
:101B5C00A886701CDAF8181001F064FFA88E083003
:101B6C00A88680B2DAF814100822304401F05AFF2B
:101B7C00A88E298E69860830A8864A1C80B22A86CF
:101B8C003154401CA886090A80B203AB3154401C66
:101B9C00A88600F0FF01AA6B304602F0A9FBA88EC4
:101BAC00039900F0DBF8090A00F0D8F8090C00F0F2
:101BBC00D5F8090E3154401CA886002005B0BDE8AC
:101BCC00F08F0120A877687F08B90720F6E7207806
:101BDC0005F11F020121C009FFF762FD2178DFF832
:101BEC00ECB501F0BF0141EA801020709BF80E208B
:101BFC0095F91F10F8B2FFF737FD08B90820DDE79B
:101C0C00A86E401EA867E86E401EE8679BF80D00A2
:101C1C0030B100208BF80D00207840F020002070AF
:101C2C000827207840F0100020702B6C049A7370F9
:101C3C00180AB070180CF070180E30712078707192
:101C4C00A86CB071010AF171002A9AF8001018BF43
:101C5C00B8F1000F1ED09BF80E20102A26DA29B3FB
:101C6C0022789BF80EC002F0F001624402F00F02E1
:101C7C0011432170717100219BF80E408AB2A2426F
:101C8C0014D289B20AEB0102FFB21279F2557F1C11
:101C9C00491CF1E79BF80E20002A18BF002905D03B
:101CAC000AF10401904604914FF0000900218AF8D2
:101CBC0000108BF80E1005F184040499002918BF4C
:101CCC00B8F1000F1DD0FFB205F1A40B06F8079078
:101CDC007F1CB9F1000FCDF808B0019003D10020A2
:101CEC000090224603E00020009005F19402049835
:101CFC00414602F099FAFFB242465946F01901F0FA
:101D0C0086FE03A80290FFB2A86C2B6C019008EB26
:101D1C0007010020A9860090224689B2304602F0C5
:101D2C0043FAA88E039A3118001D0A70039A120AFE
:101D3C004A70039A120C8A70039A120ECA703BE70F
:101D4C00002B00D038003FF438AF3A461946701CCF
:101D5C0001F05DFE781C2FE702202FE73154401C68
:101D6C00A88680B2039970472DE9F347D04C0FF247
:101D7C00241194F91F00DFF854640FF28472DFF819
:101D8C00FC768AB00D5696F9101012F90180A073EA
:101D9C000122E173627062730A98F96888470A99A4
:101DAC000FF2107001F053FC94F91F00D7F850A0FB
:101DBC00A18E072840F6B8391FD1C9B20020D047F0
:101DCC000020079006900590CDF8209001200490FB
:101DDC0000230020039046F2A812052002904146F1
:101DEC00002001904FF47A70684300900020FD6948
:101DFC00A847A18EC9B2002021E0062806D1C9B29D
:101E0C000120D04700F04AF801230DE00A990FF2A7
:101E1C00B8602B46424601F01AFCA18EC9B20120D3
:101E2C00D04700F03BF8002308200290002201204C
:101E3C0001904146FD69A847A18EC9B201207A6A7A
:101E4C00DFF844569047F065606160604946FFF7E3
:101E5C0034FAA18EBA6AC9B228469047A18E0FF205
:101E6C0094600FF2486701F0F2FB002604E0A95DD4
:101E7C00384601F0ECFB761CA08E8642F7DB8DA079
:101E8C0001F0E5FBE06D40F00100E0650CB00020D6
:101E9C00BDE8F0870C0B0A090807073200200790F1
:101EAC0006900590CDF8209001200490009500201C
:101EBC0003907047F8B500281CBF0268002A05D0B3
:101ECC004268002A1CBF8268002A01D10320F2BD9F
:101EDC00774CBE4DDFF8A46520666166002084F85F
:101EEC00200020770120A0640020E0642065687247
:101EFC000120E87200206077E0650120A084FF20BB
:101F0C00A084002028740220E07768740120A87453
:101F1C000020E874A8820120E08600206065A0659E
:101F2C0040F6B830C4F880004FF47A70A0664FF4D5
:101F3C00FA60E06641F27070206741F658306067D5
:101F4C00DFF848052864DFF84805A864DFF8440585
:101F5C002865DFF844056864DFF84005E86405F19E
:101F6C004000316888477769B84701F040FDB847B1
:101F7C0020860820A87501202872FFF7F3FAF46A6E
:101F8C00A047A0470020F2BD70B5904E044682B029
:101F9C00707C8DF800000D0001D1032076BD307BE4
:101FAC006A460021FFF77CFB717A9DF9000000293D
:101FBC0014BF0FF244010FF24801085C6870B67B45
:101FCC006878B04211D3801B287000229DF9001054
:101FDC002046FFF749FB08B9082076BD9DF9001093
:101FEC0032462046FFF740FB08B9092076BD002099
:101FFC0076BD0000404B4C003B3B3B7BE6E6E6E607
:10200C003B3B3B7BFAFAFAFA30B50146002009B9A2
:10201C00032030BD0C786D4A254B162C45D8DFE8D3
:10202C0004F00C0E10121416191C1E2023282B2D34
:10203C0030323436383A3D3F41001A7F2CE05A7F1B
:10204C002AE0127B28E0DA6B2DE01A6C2BE003F10E
:10205C00840228E003F1940225E0127A1CE0527A03
:10206C001AE0DFF83C241EE0D2E90045C1E9014545
:10207C0030BD03F1240216E0927C0DE0D3F88020F1
:10208C0011E09A6E0FE0DA6E0DE01A6F0BE05A6FEA
:10209C0009E0DA7F00E0127C0A7130BD9A6C02E034
:1020AC00DA6C00E05A6C4A6030BD022030BD000092
:1020BC00180900200D0A000004110020F8B506468E
:1020CC0000240EB90320F2BDDFF8B45395F85C0080
:1020DC00C00701D50120F2BD30783C4F13286DD8D4
:1020EC00DFE800F00A171A1D20232B33376C3A3F18
:1020FC00484E5255585B5E643079287710B10228EF
:10210C0003D05CE0FEF78BFF59E0AC77FFF70CF9DE
:10211C0055E03079687752E0307938734FE0706869
:10212C00E8634CE07068286449E07068002843D08C
:10213C000146102205F1840019E0706800283BD09C
:10214C000146102205F1940011E03079FFF70AFAEC
:10215C0035E03079787232E0D6E90101C7E9000147
:10216C002DE0706840B30146022205F1240001F015
:10217C004EFC24E03079F8B110281DDAB8741EE05A
:10218C007068C5F880001AE07068A86617E070687F
:10219C00E86614E07068286711E0706868670EE004
:1021AC0000F016F840B13079E87708E000F010F84C
:1021BC0010B13079387402E0032400E00224204688
:1021CC00F2BD0000A0130020854501000411002081
:1021DC0096F9040005220021FFF75ABA2DE9F647BB
:1021EC008046002500264746082FA8BF032058DA52
:1021FC00A34C94F85C0000F02100012851D09DF90B
:10220C00049049F3031049F3030188420DDB0522C6
:10221C00002149F30300FFF73BFA30B105220021FE
:10222C0049F30310FFF734FA00B90125032FDFF847
:10223C0070A212DA00985AF83710884218BF01269B
:10224C0049F303000328A8BF01250522052149F302
:10225C000310FFF71DFA00B9012588490098096A97
:10226C00884700281ABF009800280126354218BF5D
:10227C00062016D10DB1052013E00EB1042010E09C
:10228C00DDE900010AEBC702C2E900010AEBC70154
:10229C00002048710121A08C01FA08F10843A084A8
:1022AC000020BDE8F68730B5754C94F85C1001F051
:1022BC002101012901D1012030BD014603291EDB7A
:1022CC000FF244250009D5E90023754D05EBC10536
:1022DC000528C5E90023B8BF082910DA04EB400033
:1022EC00CC0801EB14742409828C0123A1EB04119A
:1022FC0003FA01F122EA01018184002030BD0320A0
:10230C0030BD0000243F002070B582B00546022687
:10231C00FDB15B4C94F85C00C00701D5012076BD83
:10232C000C220021204601F08AFB0120607094F8F9
:10233C002000297840F0040011B101291FD028E0B9
:10234C002170696800291CBFA968002901D0E968BF
:10235C0009B9032076BD84F8200000235148696830
:10236C0041610022A96881610021E868A063002016
:10237C008DF8000060776846FFF777FB08E084F87B
:10238C00200000222878207000210220FFF7B0F9ED
:10239C000646300007D00020A07794F8200000F00B
:1023AC00FB0084F82000304676BD2DE9F843044646
:1023BC0002270026002C55D0314D95F85C0010F00A
:1023CC00110F18BF012052D18DF80060102200218E
:1023DC0005F10C0001F033FB012068739DF800003F
:1023EC00227800F01F01304822B1012A07D0032ABD
:1023FC0013D03BE00122C27541F0400104E00276AB
:10240C0041F08001E27BC2758DF800102679A76837
:10241C00B4F80C8094F90E900CE00121C1759DF874
:10242C00001041F0E0018DF800106768B4F80880E6
:10243C0094F90A90007B20B900F01BF890B185F854
:10244C001F9043463A4631466846FFF70EFB07009D
:10245C000AD12078287395F8200040F0010085F807
:10246C00200003E0032002E00020A8773846BDE8F6
:10247C00F283052200214846FFF70AB908C600007E
:10248C0018090020B0070020C43700200B060000FC
:10249C004D090000F70F0000CB0F000033100000B7
:1024AC00A0130020243F00200411002020253032EE
:1024BC00780000004672657175656E6379203D2069
:1024CC0025640D0A000000004672657175656E6327
:1024DC0079203D2025642C207478706F77657220EC
:1024EC0025642C2064617461726174652025640D0F
:1024FC000A00000073656E642025642042203A00B7
:10250C00140E0B0805020000000000000000000083
:10251C00DFF800F0F5C00110DFF800F049BA011047
:10252C00DFF800F025C20110DFF800F0C1C2011085
:10253C00DFF800F0E3BF0110DFF800F013C1011069
:10254C00DFF800F0D5C00110DFF800F095C00110E5
:10255C00DFF800F00DA80110DFF800F0BDBE01108F
:10256C00DFF800F02DBF0110DFF800F0E1B501102D
:10257C00DFF800F021C10110DFF800F0D5C2011026
:10258C00DFF800F0D9C20110DFF800F0F1C501103E
:10259C00DFF8D400007D704738B5DFF8D400DFF8E1
:1025AC00CC500068EFF3118480F31188A8680021E7
:1025BC00FFF7CAFF6969081AA969814238BF002070
:1025CC0084F3118832BD00002DE9F041DFF8A00042
:1025DC00DFF898400768EFF3118887F31188A0683B
:1025EC000121FFF7B1FF0121A1830021E18365697E
:1025FC0021682268461B801A691A884204D200207E
:10260C00A08388F311882AE088F31188002005E064
:10261C004519361A29460120FFF79AFF8642F7D250
:10262C00EFF3118887F31188E18B012903D1294637
:10263C000020FFF78DFFA16910F1010F08BF0846BC
:10264C0003D0801B814238BF08464119FFF784FF35
:10265C00012020840020A083256088F31188BDE828
:10266C00F081808A70470000A401002078010020CE
:10267C00B0C90000DFF8041009687047B0C9000049
:10268C0001F0CEBE80B5002301223421DFF8F00921
:10269C0002F084F900B10120C0B202BDDFF8C41A07
:1026AC000A68002812BF42F0010050084000086080
:1026BC00704700007047FEE710B582B0042002F0AE
:1026CC00A1F9022818BF03280DD1032000901C2368
:1026DC004FF040520021DFF8A80902F03CF9BDE8A8
:1026EC00164004206CE0DFF89C19DFF89C0A09689E
:1026FC004418DFF89419DFF8940A0968B0FBF1F17B
:10270C002046FFF711FF2046BDE81640FFF710BF2B
:10271C00000080B5DFF874090078DFF874090168EF
:10272C008908890041F00101016002F078F902F09A
:10273C0002FADFF86019002008600220DFF8901917
:10274C000968C9688847DFF85C0A016849084900CC
:10275C00016000F01CFA042000F014F900F0B5BC84
:10276C000000DFF82C1A085C70470022012904D104
:10277C00012807D1DFF85C0903E0012802D1DFF85A
:10278C002C0A026810467047DFF8FC090079704784
:10279C00000002F059B9000010B5DFF83C160968CA
:1027AC00EFF3118481F31188DFF8DC19C98801205B
:1027BC00012908BFFFF766FF84F3118810BD0000E4
:1027CC0030B5DFF81416DFF884390A68EFF311819D
:1027DC0082F31188B0FA80F2C2F11F029A5CB0FA4F
:1027EC0080F4C4F11F04551E1D5505D1DFF898293E
:1027FC00136823EA0000106081F3118830BD0000DB
:10280C002DE9F041FFF736FFEFF3118481F31188C6
:10281C00DFF87C190A5C531E0B5444D1DFF8741991
:10282C00DFF8748901EB80052E786F88300618D597
:10283C00D8F80010096A38468847D8F80010896A19
:10284C0038468847D8F80010096B38468847DFF8B7
:10285C004C1901200860DFF8480900688007FAD598
:10286C0014E0700606D5DFF8A81951F827100020DF
:10287C0088470BE0D8F80010896938468847D8F8A3
:10288C000010496B384688470228F8D106F03F0003
:10289C003F2818BFFFF7B4FF687800F03F003F28CF
:1028AC0018BFFFF7ADFF84F31188BDE8F08110B5B8
:1028BC0008B1140001D1032010BD8160C260036116
:1028CC000146DFF8E428DFF84C0912681044FFF7E2
:1028DC0047FE002010BD0000F8B50446DFF8F804F0
:1028EC00DFF8AC180068EFF3118580F311880A5DEE
:1028FC00531C0B55002A3ED1DFF8981801EB8407C6
:10290C00387800F03F003F2818BFFFF7E5FF7878D4
:10291C0000F03F003F2818BFFFF7DEFF7E883878B5
:10292C00DFF87478010613D53968C96930468847D1
:10293C003968496A304688473968C96A30468847D9
:10294C0000F038F8DFF8580800688007FAD512E074
:10295C00400606D5DFF8B81851F826100120884734
:10296C0009E039684969304688473968496B30460F
:10297C0088470128F9D185F311882046BDE8F2403B
:10298C0002F0A4BADFF850140A68EFF3118182F355
:10299C001188DFF8F427136803431360B0FA80F052
:1029AC00C0F11F00DFF8A427135C5B1C135481F3E8
:1029BC0011887047DFF8E4170120086070470000A9
:1029CC002DE9F04F4FF000080021012883B0C146DB
:1029DC008A4618BF022412D1DFF8FC03DFF83478E2
:1029EC000268EFF3118082F311883A79012A06BF4D
:1029FC0002223A71012180F3118809B10624BDE04D
:102A0C00FFF786FD0090012000F0E6F8044610B1B7
:102A1C0001203871AFE0FFF793FDDFF82418019027
:102A2C00C1F80090012001F0EDFF012804D1002035
:102A3C0002F02CFA4FF00108DFF8DC47DFF85057B2
:102A4C00216889680020884700F0A1F8687C08B1EB
:102A5C004FF00109287C08B149F00209E87B08B164
:102A6C0049F00409E87ADFF82C6718B1A16AF08DF7
:102A7C00096B8847A87A18B1A16A708D096B8847D1
:102A8C00FFF798FF49F02000A16A89698847012067
:102A9C00FFF704FE3878C00748BF4FF0010A12D484
:102AAC00DFF89407FDF7C6FA8346BBF1040FF7D0A5
:102ABC0000F067F88008800008600321A26CDFF842
:102ACC00780752689047002002F050FA00F05FF847
:102ADC00A06A806B8047BAF1000F0AD1A26CDFF8B4
:102AEC00580752685946904700F04BF840F00300E5
:102AFC0008600120216889688847DFF84007006872
:102B0C008006FAD5B8F1000F1CBF012002F0BEF907
:102B1C00A16A496948468847A16A496B4846884773
:102B2C000128F9D1E87A18B1A16AF08DC96A8847F1
:102B3C00A87A18B1A16A708DC96A8847FFF73AFF65
:102B4C000020FFF7ABFD03203871042000F044F89F
:102B5C00DFF8EC160120086000F019F8FDF776FAA2
:102B6C00082000F039F80446012038710198FFF76D
:102B7C00FBFC02F094FA0098FFF7CEFC2046BDE86F
:102B8C00FE8FDFF8CC06DFF8C81600687047DFF858
:102B9C00A40600687047000038B58F48DFF87456FB
:102BAC000068EFF3118480F31188E888012803D1C1
:102BBC0001F09EFF0020E88084F3118831BD0000F5
:102BCC0010B5FFF757FDEFF3118481F31188FFF770
:102BDC00CFFC84F3118810BD38B500F02AF80844F6
:102BEC00FFF7AAFC002540B9204600F008F820B1F8
:102BFC00DFF86406006880470225284632BD70B5B0
:102C0C0000F017F845182846FFF7B6FC0646B068E2
:102C1C00204206D03169F26820469047C0B20128A4
:102C2C0006D03046FFF7ACFC0646AE42EFD1002092
:102C3C0070BDDFF8741509680446DFF8D8057047D5
:102C4C0030BF704770B5FDF7FDF9DFF83C552E68C5
:102C5C0006F00C000C284BD0700727D4FFF79CFC17
:102C6C00044600210120FFF780FDA0421ED2DFF8B0
:102C7C00BC0300680544DFF810040668DFF8D405CF
:102C8C000068B0FBF6F0211A2846FFF74DFC2846E9
:102C9C00FFF74EFC4FF47A70B0FBF6F200210120E6
:102CAC00FFF78EFE2846FFF73BFC23E030071FD4CE
:102CBC00DFF8F004DFF8E044DFF87855F10601683E
:102CCC005ABF4908490041F001010160DFF8800555
:102CDC00016841F00301016020202168896988475F
:102CEC0028682068806B804701202860286801E0F4
:102CFC00FFF7A6FFFDF7AAF9BDE8704002F0FAB99C
:102D0C0010B50C18FDF79EF9401E8041C00FDFF87E
:102D1C005C150A68002AFCD0246801220A6008B1FC
:102D2C00FDF794F9204610BD80B50420FFF72AFE6C
:102D3C000820FFF727FE0E20FFF7CEFDDFF81C055D
:102D4C00DFF81C150068C0F3815003280CBF01206C
:102D5C0000200880DFF80C0502680AB1012002BDD2
:102D6C00DFF80C3540221A600122C2610020486055
:102D7C0002BD10B5DFF85813DFF8EC4482B00968D7
:102D8C000968202088470F202060072341F61D503A
:102D9C0060604FF4C0720220009000F0C7F8DFF8BA
:102DAC00D4040121016001688907FCD5012121614E
:102DBC00DFF8AC442188012907D1002101610220F0
:102DCC00202100F08FF8012004E00121002000F008
:102DDC0089F80220606013BDB0C900002DE9F041F4
:102DEC00DFF89404DFF8784482B0016842688A43C3
:102DFC0042600161606810B9BDE8F341B9E7012890
:102E0C00DFF878141AD10220606008684BF2F521C3
:102E1C0048436188000A11B10021618006E0DFF8A7
:102E2C006014096821F07F4140184008DFF8541401
:102E3C000860000C4860012088600CE002280FD16B
:102E4C000868B0F5C06F02D10020606045E0032136
:102E5C00616000F06FF80121BDE8FC41002041E009
:102E6C0003283DD1002060600868A0F5C065A0680B
:102E7C0000F0B2F80646284600F0AEF886422CDA8E
:102E8C00A669284600F0ACF88019A061E568606975
:102E9C007B4E85420ED0A769A7F1100000F09CF87C
:102EAC0080462069103800F097F8804502DABFB2EE
:102EBC0000970BE0ADB2009508234FF47F42302110
:102ECC00304601F048FD206980B2009012234FF487
:102EDC00F8020421304601F03EFDBDE8F3418AE0E2
:102EEC00BDE8F38170B50D46DFF89C4382B0032139
:102EFC0021600021DFF89463316031688907FCD4CC
:102F0C0080B200900523602200F010F801203060A0
:102F1C0030688007FCD5A561002020600821DFF80F
:102F2C005003C16001600120206073BD0021544832
:102F3C0001F011BD70B50646514C82B030212046CF
:102F4C00FFF7DEFEDFF81853C0F30720E86004211A
:102F5C002046FFF7D5FEC0F384402861A6F5C0607B
:102F6C00A8602E6900F03CF88019A861A969E8688E
:102F7C00022909DA401E6FF03F039842B8BF184689
:102F8C0010310BD5002109E01E2908DB401C40281C
:102F9C00A8BF3F2010392029A8BF1F21A961686153
:102FAC00082380B200904FF47F42302100F011F8DA
:102FBC000120009011234FF4003200F009F8A869A9
:102FCC0080B2009012234FF4F80200F001F873BDA8
:102FDC000421204601F0BFBC002848BF4042704786
:102FEC0000284CBF6FF00101022101EB40000321CE
:102FFC0090FBF1F0704780B5DFF87802002101609A
:10300C0001688907FCD40021016041600120DFF8D0
:10301C00541208600E20FFF7F3FB0820FFF7D0FBDB
:10302C00BDE802400420FFF7CBBB0000F400000019
:10303C0010B504460020D4E90A2347F6906102F04B
:10304C009FF80123994228BF4FF0FF3010BD10B5F7
:10305C000C46FDF705F8011D201AB0F1004F05D8FC
:10306C00081BB0F1004F38BF8C4200D20C46DFF881
:10307C0024221268526A2146BDE8104001201047F4
:10308C0000A00C4098C90000B4C9000025400020E5
:10309C0004400340401009402DE9F04180460A46A7
:1030AC00D8E90A01D8E90C45A0FB026701FB0277BD
:1030BC00A6196F41340C002244EA07414046FFF741
:1030CC00C6FFC8E90E67BDE8F0814FF0FF3002BDC6
:1030DC00A0010010A4C90000F8B50546DFF8B8013E
:1030EC00DFF8B8610068DFF8B871EFF3118480F392
:1030FC001188306840F0800030600120B968496860
:10310C008847F96A096A142088472869BA68526A9C
:10311C00B0F5802F34BF0421010C012090473A6890
:10312C001268232100209047B968C969012088479B
:10313C00306820F4E02040F480303060306840F09B
:10314C000100306084F31188F1BD0000F83F0020CD
:10315C00DFF854010368406800220021101859411F
:10316C00704700000C200840DFF82811DFF8200120
:10317C0010B5096844684968012088476069A169ED
:10318C00BDE810400847000000120020A086010096
:10319C009C3F0020D4FB0100B801001028200860DF
:1031AC00282008408C2108409CC90000A8C90000B8
:1031BC00F8B504460D46FFF7CBFFD4E90A67324653
:1031CC003B4601F0DDFF3DB1A6FB002306FB0133BE
:1031DC0007FB0033C4E90C23F2BD38B5DFF8BC4063
:1031EC00DFF8C0502068400840002060206840F0A4
:1031FC00800020600120E062E06A296849680120B3
:10320C008847696A096A14208847E06A31BD000062
:10321C00C8150020001200209001001080B500F0AD
:10322C0004F8000C40EA014002BDDFF880000068A1
:10323C008EE700002C200940004003401410094088
:10324C000C40094009B9DFF86810FFF79DB9000080
:10325C0024220840ACC90000A0C90000B43F0050B3
:10326C007815002004800C400C400C4000800C4071
:10327C002C500C4034600C4028500C4008400C4042
:10328C00102009403C600C4000400C4038600C4061
:10329C00E40100208C010010B0C90000002009409E
:1032AC00840100108C01001008200940EC01002062
:1032BC00A0010000DFF85815096821B10A89824283
:1032CC00FAD10846704700207047000000BF13B5C4
:1032DC00044601F035FE18B1002000F002F806E0BB
:1032EC0008E0009001AB22464FF0FF31704700F030
:1032FC000DF816BD4FF0FF3016BD00F007F80EBDEF
:10330C0008B582B00023009302ABF6E777B58DB019
:10331C001C461498ADF8180000250F9828B92FE119
:10332C000EAA0DA800F07CF96D1C00F033F9080012
:10333C0000F020812529F3D100F02CF92D2905D19D
:10334C000120ADF8060000F025F902E00020ADF8F0
:10335C000600302904D10120049000F01BF901E093
:10336C0000200490002000904FF0FF3002900A20C3
:10337C002A2918D12168216051F8042B2160009270
:10338C0000F019F9009A002A11D50122ADF8062097
:10339C00009A524200920AE0009A00FB0211303966
:1033AC00009100F008F9A1F130020A2AF4D32E2979
:1033BC001DD1002102910F990F9A0978521C2A29CC
:1033CC000F9210D100F0F1F80291002944BF0020B7
:1033DC00029000F0DFF80AE0029A00FB021130398B
:1033EC00029100F0E8F8A1F130020A2AF4D3049813
:1033FC0008B1009804906C2918BF4C2905D1012004
:10340C00ADF8040000F0C6F802E00020ADF80400AE
:10341C0008A807900CA805900020642918BF6929FA
:10342C0003900DD1BDF818000028FFD000F0B7F8BC
:10343C006FF009030298049A8242B8BF049019E015
:10344C000A2375291FBF1023782908236F2903D15C
:10345C00BDF8180038B906E0702913D10493206820
:10346C002060016814E000F09AF8049A02988242F5
:10347C00B8BF0490049A059800F0A3F8079005993A
:10348C00081A2FE0632919D12068206001680FE029
:10349C00001D206010230598082200F092F8401EB1
:1034AC00079040200799087005980799401A19E071
:1034BC00001D206007980170012013E0732913D1BF
:1034CC0000F073F8079111B90FF2B8000790079844
:1034DC00FCF7D8FD0390029810F1010F1ED0039950
:1034EC0088421BDA039019E00F98401E0F900E983B
:1034FC00022813D3029810F1010F02D00E998842C2
:10350C0001D30E9800E0401CDFF80C633668029083
:10351C006B4622460FA90DA8B04745190098039990
:10352C00401A0090BDF8060038B902E000F02EF801
:10353C006D1C0098401E0090F8D50398411E039115
:10354C0050B10798401C07900EAA10F8011D0DA849
:10355C0000F066F86D1CF0E7BDF8060000283FF49B
:10356C00E4AE0098401E00903FF5DFAE00F00EF880
:10357C006D1CF6E70D9810B10D99002008702846C7
:10358C0010B070BD286E756C6C2900000EAA20213D
:10359C000DA845E00F9810F8011B0F90704720689C
:1035AC0020600168001D206070472068206050F882
:1035BC00041B206070470F990F9A0978521C0F92C8
:1035CC007047F0B500240025002B44BF5B42002956
:1035DC0002D54942521E2D25B1FBF3F60FF22C07F2
:1035EC0003FB1611641C795C00F8011D314600299F
:1035FC00F2D19442BEBF302100F8011D641CF8DBEF
:10360C00290018BF00F8015DF0BD000030313233E5
:10361C003435363738396162636465660000000002
:10362C0010B50C46116802290BD3491E11600168B4
:10363C0019B14A1C02600C7010BD01F081FC00B184
:10364C0000E010BD2046BDE8104001F077BC0EB480
:10365C0000B501A9FFF73AFE5DF810FBDFF8BC11CD
:10366C00096808470000DFF8B8010068004701202E
:10367C007047FEE7704710B50446606808B9012032
:10368C0010BD0B46014620685DA200F0A3F8A168AE
:10369C004118A16061680129A4BF081A606000206C
:1036AC0010BD00002DE9F04104468846A08816465E
:1036BC0000F022F80746F11B002E01D40A2904DB86
:1036CC00236850A200F084F8C719A08980B1F51BBB
:1036DC00A468002E05D42046FCF7D4FC401D85427E
:1036EC0006DB23460FF24812294600F071F8C71981
:1036FC003846BDE8F08100003EB50D4643490988C7
:10370C0014468142034628BF0FF22C1210D24149B5
:10371C000988814207D3FFF7CDFD21464268284630
:10372C0000F058F83EBD3F49098831B90FF2141228
:10373C002146284600F04EF83EBD3B4B1B680095D9
:10374C00002C48BF47F6FF740021029101946A4691
:10375C003649984702983EBD2DE9F843170048BFFB
:10376C0047F6FF7704468846002674B3208801008C
:10377C0004D03A464146FFF7BFFF0646B91B012964
:10378C0022DB208820B120A2404600F023F88619C5
:10379C00A068C8B1656875B12846FCF773FCA7EB47
:1037AC000609401D814506DB2B460FF2AC0249464B
:1037BC0000F00EF88619B91B122905DBA3680FF26D
:1037CC00A00200F005F886193046BDE8F28300002F
:1037DC004046FFE708B478B504001ABF2668002EEF
:1037EC0000260D4605AB3046FFF78AFD854238BFF3
:1037FC00681E16B121680144216072BC5DF808FB9B
:10380C0025730000257000003A2000003E000000E7
:10381C003C1600203C000000C0C90000B8C90000E4
:10382C00BCC900008A050000C4C900008336000032
:10383C0028272573272900007B6D6F64756C652321
:10384C0025647D007B6D6F64756C652D726F706582
:10385C003A25787D00000000222573222C200000E0
:10386C006C696E652025643A20000000DFF800F0DA
:10387C0041AC0110DFF800F085C10110DFF800F059
:10388C0079B50110DFF800F0F5B80110DFF800F0A1
:10389C00B5C10110DFF800F0A9C1011000B583B06B
:1038AC000821ADF8001001900521ADF80210684612
:1038BC0044490968884707BDF0B589B004460D46F0
:1038CC0016461F460823242200216846FFF7D2FF24
:1038DC000F983D49096806906B464FF47A70B0FB1F
:1038EC00F1F101FB07F0059001FB06F20E98ADF823
:1038FC00100029462046FFF7C1FF204609B0F0BD55
:10390C00FEF716BE38B504460D46FEF7AAFE10B1FA
:10391C002046FEF705FE00F013F800FB05F12046EB
:10392C00FEF702FE2046BDE83240FEF701BE80B530
:10393C00FEF797FE00B10120C0B202BDFEF7F0BD4C
:10394C00214909684FF47A70B0FBF1F0704710B55B
:10395C0004460021FFF796FF204610BD70B584B0D9
:10396C0004460820ADF800000D460420ADF8020016
:10397C000C2014490968019016466846884758B9C6
:10398C00029949B18E602046FFF780FF15B1284699
:10399C00FFF76CFF012003E03046FFF77FFF0020AC
:1039AC0004B070BD10B50446FEF7C6FD38B920460C
:1039BC00FFF770FF8468FFF771FF204610BD0020F1
:1039CC0010BD0000C4150020B4C900002748284AC7
:1039DC00016843F2390302FB013101606FF00040D2
:1039EC00B1FBF0F06FF0004202FB101070471F4962
:1039FC000860704738B504460D46FFF7E7FF291BF2
:103A0C00491C90FBF1F201FB1200201832BD03E0BF
:103A1C0011F8013B00F8013B13465A1E9BB2002BD8
:103A2C00F6D170471044401E03E011F8013B00F83A
:103A3C00013913465A1E9BB2002BF6D17047130066
:103A4C0003D00A46194601F013BC704710B500228A
:103A5C00084B04E010F8014B6240491E9A5CCCB252
:103A6C00002CF7D1104610BD0000000044160020B9
:103A7C006D4EC641700F002000B583B00820ADF824
:103A8C0000001220DFF89C160968ADF802006846A9
:103A9C00884701980EBDDFF8901602780A704278BC
:103AAC004A7082788A70C278CA7002790A71427937
:103ABC004A7182798A71C079C87170477CB548B9EE
:103ACC0001F036FC0FF2D060FFF7C1FDBDE873408A
:103ADC0001F08ABC01F02CFC0121072002F037F91F
:103AEC0001210620DFF84446DFF8446602F02FF986
:103AFC0020680FF28D2102F01DFC2068DFF83426BF
:103B0C0000F089F82068DFF8302600F084F820688F
:103B1C00DFF8282600F07FF82068DFF8242600F074
:103B2C0076F82068DFF81C2600F071F82068DFF8C2
:103B3C0018260FF2051400F06AF80120019040F6E7
:103B4C00B8350020009000232A46214606F12400B7
:103B5C00FFF7B2FE022000F067F806F14800FFF70D
:103B6C00ABFE042000F060F806F16C00FFF7A4FE39
:103B7C00082000F059F806F19000FFF79DFE102088
:103B8C0000F052F806F1B400FFF796FE402000F06A
:103B9C004BF806F1D800FFF78FFE202000F044F818
:103BAC0006F1FC00FFF788FE802000F038F84FF497
:103BBC007A724FF4907000F026F84FF4807000F099
:103BCC002EF84FF4FA724FF4A27000F01CF84FF478
:103BDC00806000F024F84FF47A624FF4B47000F077
:103BEC0012F84FF4C67006444FF4006000F017F85A
:103BFC002A4621463046FFF75FFE29463046BDE88F
:103C0C007C40FFF77FBE21463044FFF755BE4FF096
:103C1C00C05102F09FBB4FF4E02102F09BBB01901E
:103C2C00002300200090704701900023002000909A
:103C3C004FF47A7221467047DFF8F4140A8B104364
:103C4C000883DFF808050068FFF710BE2DE9F04186
:103C5C00DFF8FC44DFF8FC54DFF8FC64DFF8D074C8
:103C6C0040E029684046FFF74DFEFFF705FF642151
:103C7C00B0FBF1F02168401A40F6B931884228BFF8
:103C8C00FDF79AFB388B010705D54FF6F771084005
:103C9C003883FDF749FB388B810603D54FF6DF716E
:103CAC0000F069F8388B410603D54FF6BF7100F070
:103CBC0062F8388B010603D54FF67F7100F05BF884
:103CCC00388BC10505D54FF6FF610840388300F0ED
:103CDC00EDF8388B010505D54FF2FF71084038839C
:103CEC0000F05DF9388B010043D0C10705D54FF6C4
:103CFC00FE7108403883FDF7E1F9388B810705D553
:103D0C004FF6FD7108403883FDF7DAFA388BC1069F
:103D1C0005D54FF6EF7108403883FDF783FB388BE0
:103D2C00410705D54FF6FB7108403883FDF7CEFAF5
:103D3C00388B4105A6D54FF6FF31084038832968EA
:103D4C00306808184FF4B471306007EB010888D064
:103D5C00FFF792FE6421B0FBF1F031688842BFF4AA
:103D6C0080AFFFF789FE31686422B0FBF2F0091ACC
:103D7C0078E7BDE8F0810840388303F073BA00009F
:103D8C0010B5DFF8C803DFF8D44300680C290CD059
:103D9C00162902D01D2904D00DE0217841F0010133
:103DAC0006E0217841F0020102E0217841F00401A3
:103DBC002170FFF75BFD207818B1BDE8104002F0D0
:103DCC0009B810BD80B5DFF89403017811B3017800
:103DDC00C907017809D501F0FE01017003F07AFAE8
:103DEC000121062001F0B3FF10E08907017805D509
:103DFC0001F0FD01017003F06BFB07E0490705D5ED
:103E0C00017801F0F801017003F0CDFBBDE8014031
:103E1C0001F0EDBF01BD012800D0704710B5DFF8EF
:103E2C00404303202070607082B0684603F0F4FCBD
:103E3C009DF80000A0709DF80100E07001F0C7FF34
:103E4C00207113BD00B585B004A90520FEF79CF8C0
:103E5C0010B100F04DF820E0DFF8D412DFF80003C9
:103E6C000A7D6AB902908DF800200520ADF80C008F
:103E7C00012200208DF804208DF80E000A750EE04A
:103E8C00029001210520ADF80C008DF800100820DF
:103E9C008DF80F008DF8041000208DF80E00684688
:103EAC00FEF783FA00B1012005B000BDE0B501209A
:103EBC008DF800006846FEF7A7F860B99DF804106D
:103ECC009B4831B10121C1750221817501214175D8
:103EDC0001E0C175817500F062F807BD944AD369A1
:103EEC002BB110754FF4A2701044FFF70BBD704747
:103EFC0000208DF800000290ADF80C0070478C4942
:103F0C004AE0417801B1704710B589490A7812B17D
:103F1C008A89521C8A81427B72B3037B002200E0A7
:103F2C00521CD4B29C42FBD3C278012A08BF052B89
:103F3C0022D180680278012A06D0022A06D0042AEF
:103F4C0009D0052A0FD010BD012000E00220BDE8E9
:103F5C00104003F077BCC86970B1BDE810404FF455
:103F6C007A610120BAE74278807800EB022080B2B7
:103F7C0010B13C225043086210BD42786C49002AB3
:103F8C0004BF0278012A07D10A782AB101228A7368
:103F9C00027ACA73407A087401204875704700B5DC
:103FAC0085B06348807D002807D001282FD00228D7
:103FBC007CD0042800F0B080AFE06A486A49886180
:103FCC006A486B4948606B48694988606A48664929
:103FDC0088626A496648FDF76DFF5548C06900283C
:103FEC0000F09E800220604908720120644908712B
:103FFC006348FEF763F807205B49087201206049AB
:10400C0008715F48FEF75AF80120494988755648EF
:10401C0003F01AFC5448007800281FD1524840780D
:10402C0000281BD150488078002817D14E48C07802
:10403C00002813D14C48007900280FD14A48407908
:10404C0000280BD148488079002807D14648C07910
:10405C00002803D100203649487561E000208DF816
:10406C00000041480190474802904748039030486F
:10407C00407D002802D06846FEF746F93A48C06AEF
:10408C00411C394AD162642804D242F2107036497C
:10409C00486202E03D48344948623348416A3C4832
:1040AC00FFF730FC04202249887539E000202E49A6
:1040BC00C8621F48407D002807D02B48007DFFF7C1
:1040CC00AAFEFFF7BFFE1A49487519480078002868
:1040DC0002D02E48244948621548006A002809D0AD
:1040EC002C490020FFF786FC1149096A40181E492B
:1040FC00486208E027490020FFF77CFC00F5EA3015
:10410C00C030194948621848416A2148FFF7FAFB48
:10411C0004200749887503E002E0002004498875F3
:10412C0005B000BDC4150020E03F0020EC0A0020C3
:10413C0068070020160006801D0006800C00068013
:10414C00160000181D0000180C000018E40A0020CE
:10415C0080110020701100207811002022400020D6
:10416C00BC0300200B3F0000101300200F3F000089
:10417C0028130020873F00006178000038130020CE
:10418C00181300204013002048130020E093040073
:10419C00AC080020C0D40100535831323738467374
:1041AC006B496E69740D0A00F8B50446904F069879
:1041BC0078710D46180AF871BB71180C38721646D6
:1041CC00180E7872FD730798B872010AF972010C17
:1041DC00000E7873397307F120001AF00BFF31468B
:1041EC0007F120001AF018FF1022394607F12000C1
:1041FC001AF018FF05F0FF02214607F120001AF013
:10420C0011FF07F1200107F110001AF060FFB97CD3
:10421C00F87C090441EA0060797C40EA0120397C91
:10422C00084308990860F1BD2DE9F04780460D461A
:10423C009246704C1F46F022002104F12000FFF73B
:10424C00FEFB04F12002102150461BF037F90898B0
:10425C006071A771380AE0710026380C20724FF09B
:10426C000109380E60720998A072010AE172010C02
:10427C002173000E60730A9F0FE000F01FF884F8A2
:10428C000F901BF091F909F10109002000F01CF8C6
:10429C001028FBDB1036103DF6B2ADB2102DECDA67
:1042AC0055B184F80F9000F009F81BF07DF900204F
:1042BC0000F00AF8A842FBDBBDE8F08704F120020D
:1042CC0004F11001204670478119231818F80120B9
:1042DC001B7C5A40401C7A54704710B584B0089C23
:1042EC000294079C0194069C0094FFF79DFF1FBD50
:1042FC002DE9F04106463E4D0F4690461C4605F111
:10430C0020001AF077FE414605F120001AF084FED9
:10431C0007F0FF02314605F120001AF083FE05F18B
:10432C00200105F110001AF0D2FEA97CE87C0904EA
:10433C0041EA0060697C40EA0120297C0843206046
:10434C00BDE8F0812DE9F04104460D461646DFF834
:10435C00A4801F46F022002108F12000FFF76FFB1C
:10436C0008F12002102130461BF0A8F808F12002B9
:10437C00394620461BF018F9102D09DB08F12002F4
:10438C0007F1100104F11000BDE8F0411BF00CB96D
:10439C00BDE8F081F4B504460D46164F84B01E46B8
:1043AC00F022002107F12000FFF749FB07F1200262
:1043BC00102120461BF082F800F02CF8012000F0B0
:1043CC0021F800F019F807F12002314668461BF07D
:1043DC00EBF800F01FF8022000F014F800F00CF8D5
:1043EC000A9907F1200268461BF0DEF805B0F0BD13
:1043FC00080C00205C0E0020022204A90DF107001D
:10440C00FFF705BB8DF80000062229460DF10100CF
:10441C00FFF7FDBA102200216846FFF710BB000021
:10442C0010B5DFF86404046814F1010F08BF002410
:10443C0003F074FADFF85414002008600120DFF850
:10444C0050140860DFF84C140860DFF84C04006866
:10445C0028B1DFF848040068204600F023F8DFF8A4
:10446C004004DFF8402401688908890041F00051BC
:10447C0041F005010160DFF8300401686FF31B4166
:10448C0011430160DFF824040168C1F301310129F3
:10449C0007D10168DFF81824114041F400320260A2
:1044AC00016010BD2DE9F84F0446DFF80814012017
:1044BC000860DFF8040401680029FCD0DFF8FC5325
:1044CC00DFF8FC83C0202860D8F80CA0D8F80810BE
:1044DC00DFF8F00389075DBFD8F80410090C41F030
:1044EC00F00172210170DFF8E0130968D8F80C2094
:1044FC00C1F304611629A8BF203901EB2271491CB4
:10450C006FF009029142B8BF114601F01F0141F44E
:10451C00F8510183CAF3C061DFF8B00381F00101E7
:10452C000160CAF3806181F00101816014B9DFF888
:10453C00A0732DE0DFF89C030068C0F383615FEA91
:10454C008A32C0F38F2021D44FEA0A4212160AD5C0
:10455C004FF6FF73400804D11846490804BF0121E7
:10456C000120521CF6D4012A10DB400040F001005F
:10457C00B0F5803F21BF0120490041F00101102915
:10458C0024BF0F214FF6FF70521EECE740EA0147A3
:10459C00FBF758FD401E8041C00FCF4E31680029FB
:1045AC00FCD0DFF83893C9F810700121316008B1E4
:1045BC00FBF74CFD0CB9D82008E0C64A106811680E
:1045CC00C0F3870001F0030140EA0120009040F2A3
:1045DC00FF3700233A462C21C14800F0BCF91CB12E
:1045EC00BC48C06A8704BF0CFBF72CFD401E804101
:1045FC00C00F31680029FCD0C9F81470012131605A
:10460C0008B1FBF723FD002C0FBFB64FB148406A31
:10461C0020F00337FBF716FD401E8041C00F3168B8
:10462C000029FCD0C9F80C700121316008B1FBF7EE
:10463C000DFD0CB9AC4F04E0A648AC49006A01EA88
:10464C000007FBF7FFFC401E8041C00F31680029BA
:10465C00FCD0C9F808700121316008B1FBF7F6FCF9
:10466C000CB9A34F20E09B48806AD8F80830DB07D0
:10467C00C0F30352C0F303410BD4D8F804301F0528
:10468C0002EB27721B0482F3040201EB237181F30A
:10469C000401090441EA025182B242EA0107222CC8
:1046AC0024BF00F080400743FBF7CCFC401E804148
:1046BC00C00F31680029FCD0C9F8047001213160A9
:1046CC0008B1FBF7C3FC2220222C824F06D3F86BD7
:1046DC00000F00F00100400040F0200085490872F6
:1046EC001120222C05D3F86B400F00F0010040F094
:1046FC001000202C08724FF0000B07D3B86CC10CC3
:10470C0001F44071C0F3845040EA010BFBF79AFCB2
:10471C00401E8041C00F31680029FCD0C9F820B080
:10472C000121316008B1FBF791FC6020202C06D3ED
:10473C00B86C000D00F00300400040F060006D49C3
:10474C00C8728020222C06D3F86BC00E00F001003A
:10475C00C00040F080000870222C4FF47C4006D33F
:10476C00F86B400D00F03F00800040F47C40624943
:10477C00DFF888B10880202C0AD3B86C0203810AB8
:10478C0002F47C1242EA815100F00F0041EA003B36
:10479C00FBF758FC401E8041C00F31680029FCD04B
:1047AC00C9F800B00121316008B1FBF74FFC544847
:1047BC0044210170882181700CB9302105E0F96B1E
:1047CC00C90C01F0030141F03001C1704FEA9A505D
:1047DC0010F0030003D002283CD012D33CE001219E
:1047EC00042000F0EDF843F2BD70E86386202864E5
:1047FC0001206864434801680029FCD000206864EB
:10480C002EE0012000F0FEF804462146042000F0C2
:10481C00D7F8042000F0F6F8A042FAD1D8F800300E
:10482C001802000A81B2E963000C28640120686454
:10483C00344801680029FCD0002068644FF06022E5
:10484C00180E314B1B681B68072198474FF480608A
:10485C00C9F83800032100E00221042000F0B0F870
:10486C00F8692A4900F03F00087047F618002849FB
:10487C000880104927480068002028600860012043
:10488C0025490860BDE8F18F1C1300508404604278
:10489C005C600C4008220443800128430001204343
:1048AC000440034000003901482003400400094043
:1048BC00FFFFFCFC101009409402224300600C40E6
:1048CC00A83F005056620840B81200500000204328
:1048DC00FF0F0F005013005000800C4008A00C403C
:1048EC0000A00C40000088688A766800FFFFFC007E
:1048FC00273F710041A10C40DCA10C4000803F40DF
:10490C0005A10C4084088C43B40100100BB00C4082
:10491C0070B00C402C2009409404604238B5044619
:10492C000D46FBF78FFB401E8041C00F1A490A68E9
:10493C00002AFCD0012D02D0022D02D003E02478F5
:10494C0002E0248800E0246801220A6008B1FBF729
:10495C007DFB204632BD38B500EB4100102B00F535
:10496C00007402D3103B241D120C0498984040EAAA
:10497C000245FBF767FB401E8041C00F06490A68E1
:10498C00002AFCD0256001220A6000281CBFBDE86B
:10499C003140FBF75BBB31BD00800C4038B51D4688
:1049AC000818102D144602D3103D801C240C022133
:1049BC00FFF7B4FF04EA000188B2E84032BD000002
:1049CC0038B50446E0070D4607D5A8B20090002381
:1049DC00012200216B48FFF7BEFFA00707D5A8B244
:1049EC0000900123022200216648FFF7B4FF600704
:1049FC0007D5ADB2009502230C2200216148FFF7C8
:104A0C00AAFF31BD0146042907BF1D234FF0C04248
:104A1C001C234FF080525B483421FFF7BFBF10B509
:104A2C00594C2168896801208847584801688906D3
:104A3C00FCD5216909684020884721698968402094
:104A4C0088471128F9D110BD70B50546FBF708FB56
:104A5C004F4C6168401A4FF47A714843060CFBF7CF
:104A6C002DFB2169401A48BF4042711940F6B932FA
:104A7C00914207D2062805DAA068E168814201D389
:104A8C00226852B943494A68D2074FF4FA6016D4E7
:104A9C000868C0B27D21484308E0081A3E494843E3
:104AAC00000C00EB9000904238BF1046C82801D291
:104ABC00C82070BDB0F57A6F88BF4FF47A6070BDB6
:104ACC0010B582B00120009000232E4C0122194613
:104ADC002046FFF740FF01200090034602220021F0
:104AEC002046FFF738FFFBF7BBFA2949886013BD56
:104AFC0080B50120FFF786FF01281AD00023012280
:104B0C0034212048FFF74AFFA0B1244800688047B1
:104B1C00FBF7A6FA1E498B680A68C860A2EB9202E2
:104B2C00C01A1D4B5843000C0860904238BF104609
:104B3C000860012002BD10B582B000200090014633
:104B4C00104C002301222046FFF705FF00200090A7
:104B5C000146012302222046FFF7FDFE1C234FF0E5
:104B6C00805234212046FFF719FF10B10B48006822
:104B7C008047074CFBF774FA6060FBF79FFA2061E3
:104B8C0013BD000000A00C4090010010141009404F
:104B9C00B03F0020AC3F005040420F00800000109E
:104BAC00DFF800F049C10110DFF800F019C2011064
:104BBC00DFF800F00DC30110DFF800F081C6011022
:104BCC00DFF800F095B70110DFF800F08DC201108E
:104BDC00DFF800F03DC20110DFF800F009C301104E
:104BEC00DFF800F045C00110DFF800F0D1C701106C
:104BFC00DFF800F067BE0110DFF800F021B3011000
:104C0C00DFF800F041C80110DFF800F089C4011092
:104C1C00DFF800F001C80110DFF800F011C8011036
:104C2C00DFF800F021C801100C2811D0192814D07D
:104C3C001D2817D020281AD021281DD0252820D097
:104C4C002A2823D02B2826D02C2829D000207047A6
:104C5C00DFF8F002006800687047DFF8E8020068CF
:104C6C0040687047DFF8DC02006880687047DFF846
:104C7C00D4020068C0687047DFF8C8020068006999
:104C8C007047DFF8C002006840697047DFF8B40273
:104C9C000068C0697047DFF8AC020068006A7047B2
:104CAC00DFF8A0020068406A704700B58BB00A219B
:104CBC006846FFF77DFF0BB000BD00B581B0FDF776
:104CCC00DFFCDFF88402DFF884120068884218BF2A
:104CDC0000F096F8DFF87802B0F5B26F03D001B0AF
:104CEC005DF804EB8DE001B000BD2DE9F04184B01E
:104CFC001D460B6880461446002226681F7800204B
:104D0C0003F1010C242FC1F800C038D15F780CF1ED
:104D1C0001034C2F0B6006D156F8040BAA684146D0
:104D2C00FEF7C0FC25E0462F0DD156F8041B01916F
:104D3C00414656F8040BADF8002002906846AA686C
:104D4C00FEF70AFD15E0532F19D156F8040BE86154
:104D5C0026602346288B0090EA69A968D8F80000E1
:104D6C00FEF7D4FAD8F8001011B10144C8F80010BD
:104D7C0026680021E96001222968091A2960662F3A
:104D8C0008D1298B002911BF361DF11D21F0070117
:104D9C0001F108061AB9E9690F700121E960266072
:104DAC0004B0BDE8F0814FF0FF309060704700B563
:104DBC0081B00FF22100FFF7FFFEFFF701FFFFF7B5
:104DCC0003FFFFF705FF01B05DF804EBFFF704BF2D
:104DDC000000000000B581B0FDF7B2FBFDF798FBB9
:104DEC0001B05DF804EB0320FFF7FABE10B50446E2
:104DFC000320FFF7F5FE2046BDE81040FFF7F4BE98
:104E0C00FEE7FEE700B581B0FFF7F2FEDFF84401E4
:104E1C00C06801B05DF804EBFFF7EEBEDFF83811A7
:104E2C00DFF8380188617047DFF8341101280CBFB6
:104E3C0040F2FF70002008600020704730B581B050
:104E4C00FFF7AEFEDFF81C510446E88820B1FFF7EF
:104E5C004FFE60B10020E880FDF766FF054610208C
:104E6C00FDF7BAFE012D0BD1FDF783FF08E00521FC
:104E7C0005F13000FDF758FB05F13000FDF758FB4C
:104E8C00204601B0BDE83040FFF78EBE10B50128BA
:104E9C0018D1FFF7B7FD012816D0FFF711FEDFF888
:104EAC00C4400120E08004F13000FDF739FB0521FE
:104EBC0004F13000FDF738FB04F13000FDF738FB4E
:104ECC00002010BDFFF737FE002010BD10B50124E7
:104EDC000E2805D10120FFF795FD012805D003E030
:104EEC00DFF88410085C00B90024204610BD0020B7
:104EFC00704710B58CB004466846FFF781FE14B9B4
:104F0C0000200CB010BD08346B4600222146002056
:104F1C00FFF77AFE10B10060446008300CB010BD91
:104F2C0038B150F8081D42688018421A0020FFF76B
:104F3C006FBE7047FFF770BEFFF772BEFEF78EBBF9
:104F4C00FEF791BBF001002098CA01107047282091
:104F5C0090050000780100204401002000040000AE
:104F6C0000000460001200209C3F0020F8B50546AC
:104F7C007748784C0068800705D50820A0717649E1
:104F8C0076480860F1BDFBF799F8754A1268002164
:104F9C0012F0030F18BF0121520748BF41F0020164
:104FAC000DB141F0040194F90720821A052A02DAA6
:104FBC00A279914259D0A0F10F0200250023002ABA
:104FCC001FD402EB02121312082B28BF07231D4615
:104FDC00072D28BF0625634E06EB850756F825508E
:104FEC007F687E1BF5B24F0744BFC6F307277D19B8
:104FFC008F0744BFC6F307477D19CF0748BF05EBA2
:10500C001665584E56F82370FEB25FEA417C44BFD9
:10501C00C7F3072C66445FEA817C44BFC7F3074C97
:10502C0066445FEAC17C48BF06EB1766A2EB03221D
:10503C006A434D4B1D681B68A1718032092A92414D
:10504C002D17C5F108053427D243DBB27D436B43E2
:10505C0006EBD272B3FBF2F2B2F5803F28BF4FF6EB
:10506C00FF7200F30700A280E07140480068A1883D
:10507C00206000201F2904D21F21A18004E04908D0
:10508C00401CB1F5007FFAD20F39090940EAC10082
:10509C00314A37490843106000205060F1BD10B50B
:1050AC003448006884B224B3FBF708F8294991F915
:1050BC000720904205DA6FF07F029042B8BF10468D
:1050CC00C8718888844201D28C8010BD274A12682E
:1050DC000B68D21A921C202A28BF1F22231A5208AE
:1050EC0023FA02F42018B0F5803F28BF4FF6FF706A
:1050FC00888010BD2048006800B9704710B41F4963
:10510C008A6802F04063B3F1406F1ED04B689B0776
:10511C001BD40F4B1C680968C1F303511C310901E6
:10512C0014F0050F06D088420FD224F00500186049
:10513C0010BC7047814208D2100158BF44F00104E2
:10514C00500158BF44F004041C6010BC70470000B0
:10515C00000009400040002030100940FDFDA40073
:10516C00242208409C130050B43F005008200940F2
:10517C0000FFA4803410094028500940AC3F005077
:10518C001B4213D1094236D12AB18446B0FBF2F04E
:10519C0002FB10C27047FBF76DB9FCD30022002351
:1051AC0070470B000200002100207047904271EB09
:1051BC00030CF6D370B5B1FA81F4B3FA83F52C1B5A
:1051CC00A340C4F1200532FA05F63343A2405FF048
:1051DC000046E64002E05B085FEA3202841A71EB9B
:1051EC00030524BF204629467641F4D302000B0068
:1051FC003000002170BD012ACFD970B5140C20D01D
:10520C00B1FA81F4B2FA82F5C4F120046419B4F154
:10521C002006D6D3B2405FF00044F440002502E0F3
:10522C0052085FEA3303C61A71EB020E24BF3046F4
:10523C00714664416D41F3D302000B00200029003C
:10524C0070BD0C46B1FBF2F102FB11452D0445EA91
:10525C001045B5FBF2F402FB145580B240EA05454B
:10526C00B5FBF2F002FB105240EA044070BD0000A6
:10527C0062F30F2262F31F42401810F0030308D0B0
:10528C00C91A1FD3DB0748BF00F8012D28BF20F82F
:10529C00022D130030B414461546103928BF20E9EE
:1052AC003C00FAD8490728BF20E90C0048BF40F859
:1052BC00042D890028BF20F8022D48BF00F8012DCD
:1052CC0030BC7047C91818BF00F8012DCB0728BF98
:1052DC0000F8012D70470000DFF800F029B4011030
:1052EC0000B585B00190002003900290009100F071
:1052FC001AF8002814BF00204FF0FF3005B000BD95
:10530C0000B585B0009102900021344801910391C1
:10531C006946006A02F01BFB002814BF00204FF006
:10532C00FF3005B000BD69462C48006A02F00FBB87
:10533C0010B52A4C206A80B9204602F003FB28489D
:10534C002061214600202073207002F0F1FA2062C7
:10535C0018B9BDE81040FFF7BFBF10BD1F48016A68
:10536C00896809680C310968C906F8D470471D4969
:10537C000B68002814BF002201220B21184600F0F4
:10538C00A8BF10B5174C20680022152100F0A1FF12
:10539C004FF4FA50FAF75EFE20680122152100F056
:1053AC0098FFBDE8104049F64040FAF753BE10B5DF
:1053BC000C4C0100206805D001220E2100F089FF61
:1053CC00002204E000220E2100F083FF012220685D
:1053DC00BDE810400F2100F07CBF00009C3E002077
:1053EC0000093D00EC0A002010B5544C04F12400D7
:1053FC00206200F078F86F2204F12501012001F001
:10540C00F3FE00F068F800F066F8216A202088723C
:10541C00206A817A0A2001F0C9FE216A20200873D3
:10542C00206A017B0C2001F0C1FE617E206A0029FC
:10543C0014BF1E210E2141730820216A81F8260019
:10544C00AA20216AC877FF20216A08749320216A58
:10545C0081F827006920216A81F828008120216ABF
:10546C0081F829007E20216A81F82A009620216A81
:10547C0081F82B00207E216A000140F0800081F829
:10548C0030000020216A81F8310002F04FFB216AC4
:10549C00A07E81F832006F2204F12501012001F079
:1054AC0093FE206802F066FA606802F0A0FAA06829
:1054BC0002F0B7FA012002F04EFB94F90C0002F056
:1054CC00D9FA002002F07DFB012000F015F8BDE8B0
:1054DC001040032010E0216A00204870206A4178B7
:1054EC00012001F063BE80B5422001F065FE134936
:1054FC00096A81F8420001BD38B5104D2A6A52780C
:10550C000446002002F00702944215D0032C2A7F97
:10551C0008BF012090421CBF2877FFF748FF286A7C
:10552C00417801F0F80121434170286A4178BDE8C7
:10553C003440012001F03ABE31BD00007010002053
:10554C00DFF800F0D9C10110DFF800F025B101102F
:10555C0000B583B00821ADF8001001900321ADF81F
:10556C0002106846DFF820190968884707BD00B5A6
:10557C008FB008233C2200216846FFF7E1FFDFF8DB
:10558C000C0900F15001079100234FF47A71089136
:10559C006A46012106910FF28541FFF7D5FF0FB046
:1055AC0000BDF0B585B002AA0421842002F058FF9A
:1055BC00DFF8DC48DFF8DC584FF48E702618042234
:1055CC0005F1240102A802F095FF002805F1100254
:1055DC0027D11021802002F043FF05F12002042185
:1055EC00812002F03DFF04F11A020221822002F018
:1055FC0037FF05F10E020221832002F031FF324603
:10560C001021862002F02CFF05F10C0201218720CD
:10561C0002F026FF05F10D0201218C2002F020FF83
:10562C002EE01021802002F030FF05F12002042131
:10563C00812002F02AFF04F11A020221822002F0DA
:10564C0024FF05F10E020221832002F01EFF05F15A
:10565C0024020421842002F018FF324610218620F7
:10566C0002F013FF05F10C020121872002F00DFF5F
:10567C000220687305F10D0201218C2002F005FF58
:10568C00687B00F0F9FBA87B02F09AFE00272A4603
:10569C0009218B2002F0E4FE40B1DFF8FC07FAF799
:1056AC00D9FC3846471CC0B20428F0DB0821284638
:1056BC0002F052FF297A814218D106202918434260
:1056CC00497800F03AF8F9DA684602F099FE0622B9
:1056DC00A91C684602F0D0FF0821284600F094FB74
:1056EC004FF4967020448EC88EC612E069464FF473
:1056FC00417003F041F90622694603A802F0CCFF81
:10570C00062003A90144434211F8011C00F015F8CE
:10571C00F7DA2846FEF7BFF90622694604F10F00B6
:10572C0002F0AAFF287B607507224FF48270A11C3F
:10573C00204402F0A1FF05B0F0BD0DEB0302401EAA
:10574C0001289171704770B584B000F02FFA0120D8
:10575C00DFF83417DFF838470968DFF84057ADF841
:10576C00020068468847BDF80400E08304F13C0160
:10577C000298A06204F14C0000F0F2FC606204207C
:10578C0000F088FD00212970C0B2636A18BB0122A9
:10579C000621184600F09DFD606A012200F0A1FA76
:1057AC000420FDF7EFF80820FDF7ECF800210020AD
:1057BC00FEF784F90120287020231020009040224D
:1057CC0004F1380104F1280003F0ABFC1321012093
:1057DC0002F009FE7FBD184600F04EFDDFF8C01642
:1057EC000FF22555DFF8BC6604F1F80000F0B8FCA8
:1057FC002063FFF7D6FE00210120FEF75FF904F1CC
:10580C00EC00FEF7A4F8E06200230420019041F2C2
:10581C00883200200090294604F1A400FEF74CF8D1
:10582C004FF4807001900023012000904FF47A72A5
:10583C00294604F15800FEF73FF8207EB072032190
:10584C00607E30731F2002F049FC01208DF80100AE
:10585C000DF101020020ADF80A00012101208DF8A4
:10586C0000002820ADF808003220ADF8060000201A
:10587C00ADF804004FF49670ADF8020040F205301C
:10588C0002F036FF0DF10A02022140F2063002F05E
:10589C002FFF224600F085F932460D2140F20730E9
:1058AC0002F026FF6A4601214FF4447002F020FFFB
:1058BC0002AA022140F2113002F01AFF0DF1060289
:1058CC00022140F2123002F013FF01AA022140F231
:1058DC00133002F00DFF0DF1020202214FF445705E
:1058EC0002F006FF4FF4827022181521002002F0FE
:1058FC000FFBE07EA17E00EB012080B2A02148438B
:10590C00642190FBF1F6B1B2062002F0E7FBB1B2D4
:10591C00072002F0E3FBB1B2082002F0DFFBB1B2CA
:10592C00092002F0DBFBB1B20A2002F0D7FBB1B2C6
:10593C000B2002F0D3FBDFF87005019001208DF8ED
:10594C0003008DF802000020ADF8000001AA04212C
:10595C004FF4816002F017FC0DF1030201214FF4AA
:10596C00806002F010FC0DF10202012140F20240B5
:10597C0002F009FC0DF10102012140F2034002F09A
:10598C0002FC6A46012140F2064002F0FCFB4FF09B
